:020000040800F2
:10000000005000209D0C0008D50B0008DB0B0008F9
:10001000E10B0008E70B0008ED0B000800000000F2
:10002000000000000000000000000000F30B0008CA
:10003000FF0B0008000000000B0C0008170C000864
:10004000E50C0008E50C0008E50C0008E50C0008CC
:10005000E50C0008E50C0008E50C0008E50C0008BC
:10006000E50C0008E50C0008E50C0008E50C0008AC
:10007000E50C0008E50C0008E50C0008E50C00089C
:10008000E50C0008E50C0008E50C0008E50C00088C
:10009000E50C0008E50C0008E50C0008E50C00087C
:1000A000E50C0008E50C0008E50C0008E50C00086C
:1000B000E50C0008E50C0008E50C0008E50C00085C
:1000C000E50C0008E50C0008E50C0008E50C00084C
:1000D000E50C0008E50C0008E50C0008E50C00083C
:1000E000E50C0008E50C0008E50C00080000000025
:1000F0000000000000000000000000000000000000
:0C01000000000000000000005FF808F1A3
:10010C0010B5054C237833B9044B13B10448AFF345
:10011C0000800123237010BD7C0000200000000033
:10012C00B836000808B5034B1BB103490348AFF3BD
:10013C00008008BD0000000080000020B8360008D8
:10014C00034613F8012B002AFBD1181A013870470B
:10015C0080F0004002E000BF81F0004142001FBF70
:10016C005FEA410392EA030F7FEA226C7FEA236C79
:10017C006AD04FEA1262D2EB1363C1BFD21841406E
:10018C0048404140B8BF5B42192B88BF704710F004
:10019C00004F40F4000020F07F4018BF404211F0A7
:1001AC00004F41F4000121F07F4118BF494292EA0F
:1001BC00030F3FD0A2F1010241FA03FC10EB0C003B
:1001CC00C3F1200301FA03F100F0004302D54942C8
:1001DC0060EB4000B0F5000F13D3B0F1807F06D375
:1001EC0040084FEA310102F10102FE2A51D2B1F16D
:1001FC00004F40EBC25008BF20F0010040EA030062
:10020C007047490040EB0000013A28BFB0F5000FE1
:10021C00EDD2B0FA80FCACF1080CB2EB0C0200FA97
:10022C000CF0AABF00EBC25052421843BCBFD040E6
:10023C001843704792F0000F81F4000106BF80F460
:10024C0000000132013BB5E74FEA41037FEA226C23
:10025C0018BF7FEA236C21D092EA030F04D092F0EE
:10026C00000F08BF0846704790EA010F1CBF002022
:10027C00704712F07F4F04D1400028BF40F000407F
:10028C00704712F100723CBF00F50000704700F09F
:10029C00004343F0FE4040F4000070477FEA2262C6
:1002AC0016BF08467FEA23630146420206BF5FEA97
:1002BC00412390EA010F40F4800070474FF0000397
:1002CC0004E000BF10F0004348BF40425FEA000C5E
:1002DC0008BF704743F0964301464FF000001CE006
:1002EC0050EA010208BF70474FF000030AE000BF5C
:1002FC0050EA010208BF704711F0004302D540429A
:10030C0061EB41015FEA010C02BF8446014600200B
:10031C0043F0B64308BFA3F18053A3F50003BCFA26
:10032C008CF2083AA3EBC25310DB01FA02FC6344D3
:10033C0000FA02FCC2F12002BCF1004F20FA02F2DA
:10034C0043EB020008BF20F00100704702F12002CD
:10035C0001FA02FCC2F1200250EA4C0021FA02F22E
:10036C0043EB020008BF20EADC7070474FF0FF0C33
:10037C001CEAD0521EBF1CEAD15392EA0C0F93EA2E
:10038C000C0F6FD01A4480EA010C400218BF5FEAD0
:10039C0041211ED04FF0006343EA501043EA511143
:1003AC00A0FB01310CF00040B1F5000F3EBF49003D
:1003BC0041EAD3715B0040EA010062F17F02FD2A41
:1003CC001DD8B3F1004F40EBC25008BF20F0010024
:1003DC00704790F0000F0CF0004C08BF49024CEA3B
:1003EC00502040EA51207F3AC2BFD2F1FF0340EACD
:1003FC00C250704740F400004FF00003013A5DDC3E
:10040C0012F1190FDCBF00F000407047C2F100027E
:10041C00410021FA02F1C2F1200200FA02FC5FEA6B
:10042C00310040F1000053EA4C0308BF20EADC70B5
:10043C00704792F0000F00F0004C02BF400010F427
:10044C00000F013AF9D040EA0C0093F0000F01F0D4
:10045C00004C02BF490011F4000F013BF9D041EAF6
:10046C000C018FE70CEAD15392EA0C0F18BF93EAF8
:10047C000C0F0AD030F0004C18BF31F0004CD8D122
:10048C0080EA010000F00040704790F0000F17BFA9
:10049C0090F0004F084691F0000F91F0004F14D0EF
:1004AC0092EA0C0F01D142020FD193EA0C0F03D147
:1004BC004B0218BF084608D180EA010000F000404A
:1004CC0040F0FE4040F40000704740F0FE4040F425
:1004DC00400070474FF0FF0C1CEAD0521EBF1CEAC4
:1004EC00D15392EA0C0F93EA0C0F69D0A2EB0302E2
:1004FC0080EA010C49024FEA402037D04FF080537C
:10050C0043EA111143EA10130CF000408B4238BF40
:10051C005B0042F17D024FF4000C8B4224BF5B1A4E
:10052C0040EA0C00B3EB510F24BFA3EB510340EA9C
:10053C005C00B3EB910F24BFA3EB910340EA9C004A
:10054C00B3EBD10F24BFA3EBD10340EADC001B01BA
:10055C0018BF5FEA1C1CE0D1FD2A3FF650AF8B425E
:10056C0040EBC25008BF20F0010070470CF0004C6B
:10057C004CEA50207F32C2BFD2F1FF0340EAC25096
:10058C00704740F400004FF00003013A37E792F057
:10059C00000F00F0004C02BF400010F4000F013AB5
:1005AC00F9D040EA0C0093F0000F01F0004C02BFB0
:1005BC00490011F4000F013BF9D041EA0C0195E719
:1005CC000CEAD15392EA0C0F08D142027FF47DAFB2
:1005DC0093EA0C0F7FF470AF084676E793EA0C0FA2
:1005EC0004D14B023FF44CAF08466EE730F0004CA0
:1005FC0018BF31F0004CCAD130F000427FF45CAF30
:10060C0031F000437FF43CAF5FE700BF4FEA40029C
:10061C00B2F1FE4F0FD34FF09E03B3EB12620DD924
:10062C004FEA002343F0004310F0004F23FA02F08E
:10063C0018BF404270474FF00000704712F1610F35
:10064C0001D1420205D110F0004008BF6FF000400C
:10065C0070474FF00000704742000ED2B2F1FE4FCF
:10066C000BD34FF09E03B3EB126209D44FEA002375
:10067C0043F0004323FA02F070474FF0000070473C
:10068C0012F1610F01D1420202D14FF0FF307047DD
:10069C004FF00000704700BF80B586B002AF00F08D
:1006AC005FFD00F06DF800F07BF900F0AFF800F0A2
:1006BC0023F9002202212A4800F02AFC3C21294877
:1006CC0001F028FE0021284801F0E0FC264B1B68B5
:1006DC0040F2DC525A6306230093244B0022002183
:1006EC001F4800F0D0FC40F6B83000F09BFD1D4BCD
:1006FC001B685B6AFB73FB7B1846FFF7DFFD034649
:10070C001B491846FFF7E6FE03461A491846FFF741
:10071C002DFE0346BB60B86800F070F97860B868CD
:10072C00FFF774FF03461A461349144802F00CFBFA
:10073C001248FFF705FD0346DBB200930F4B002276
:10074C000021074800F09FFC074B1B687A685A632E
:10075C004FF47A7000F066FD014800F0ADFCC6E77E
:10076C0000000020E000002098000020D036000897
:10077C000000A04100003443D836000828010020B6
:10078C0080B590B000AF07F118032822002118465D
:10079C0002F0FAFA3B1D00221A605A609A60DA6085
:1007AC001A610123BB614FF48033FB6100233B6270
:1007BC000123BB6202237B634FF48033BB634FF492
:1007CC00E013FB6307F11803184600F0CFFF034654
:1007DC00002B01D000F032F90F237B600223BB60A9
:1007EC000023FB604FF480633B6100237B613B1D66
:1007FC000221184601F03CFA0346002B01D000F010
:10080C001DF900BF4037BD4680BD000080B58EB0DD
:10081C0000AF07F1280300221A605A609A60DA6070
:10082C0007F1200300221A605A603B1D00221A6057
:10083C005A609A60DA601A615A619A612C4B2D4A9F
:10084C001A602B4B47225A60294B00229A60284B86
:10085C0044F61F62DA60264B00221A61244B0022F8
:10086C009A61234801F06AFB0346002B01D000F08B
:10087C00E5F84FF48053BB6207F1280319461C4876
:10088C0001F098FE0346002B01D000F0D7F8184871
:10089C0001F0A3FB0346002B01D000F0CFF800239E
:1008AC003B6200237B6207F120031946104802F0DB
:1008BC00EDF90346002B01D000F0C0F860237B60FB
:1008CC000023BB600023FB6000237B613B1D0022E7
:1008DC001946074801F0ACFD0346002B01D000F08F
:1008EC00ADF8034800F03EF900BF3837BD4680BD77
:1008FC00980000200004004080B58CB000AF07F1D8
:10090C000C0324220021184602F03EFA3B1D002263
:10091C001A605A60204B214A1A601F4B00225A6001
:10092C001D4B00229A601C4B1322DA601A4B0022DA
:10093C001A61194B00229A610123FB6000233B6171
:10094C0001237B610023BB610023FB6100233B621D
:10095C0001237B620023BB620023FB6207F10C03C3
:10096C0019460D4801F034FC0346002B01D000F071
:10097C0065F800237B600023BB603B1D19460648CD
:10098C0002F084F90346002B01D000F057F800BFA9
:10099C003037BD4680BD00BFE0000020000800409D
:1009AC0080B485B000AF144B9B69134A43F020030D
:1009BC009361114B9B6903F02003FB60FB680E4BAA
:1009CC009B690D4A43F0040393610B4B9B6903F045
:1009DC000403BB60BB68084B9B69074A43F00803E0
:1009EC009361054B9B6903F008037B607B6800BF38
:1009FC001437BD4680BC70470010024080B582B0F1
:100A0C0000AF78600B497868FFF7B0FC03460A49E1
:100A1C001846FFF75FFD034606491846FFF79EFB95
:100A2C0003461846FFF718FE034618460837BD461E
:100A3C0080BD00BF00007A440000344380B400AF96
:100A4C0072B600BFFEE7000080B485B000AF154B56
:100A5C009B69144A43F001039361124B9B6903F0A9
:100A6C000103BB60BB680F4BDB690E4A43F080533C
:100A7C00D3610C4BDB6903F080537B607B680A4BC2
:100A8C005B68FB60FB6823F0E063FB60FB6843F092
:100A9C000073FB60044AFB68536000BF1437BD460B
:100AAC0080BC7047001002400000014080B485B04B
:100ABC0000AF78607B681B68094A93420BD1094BE5
:100ACC00DB69084A43F00203D361064BDB6903F090
:100ADC000203FB60FB6800BF1437BD4680BC704747
:100AEC00000400400010024080B588B000AF786070
:100AFC0007F1100300221A605A609A60DA607B6872
:100B0C001B68154A934223D1144BDB69134A43F0FB
:100B1C000403D361114BDB6903F00403FB60FB6836
:100B2C000E4B9B690D4A43F0080393610B4B9B6979
:100B3C0003F00803BB60BB68C0233B6100237B61EF
:100B4C000023BB6107F110031946054800F072FC45
:100B5C0000BF2037BD4680BD000800400010024099
:100B6C00000C014080B588B000AF786007F110032D
:100B7C0000221A605A609A60DA607B681B680F4A20
:100B8C00934217D10E4B9B690D4A43F004039361BA
:100B9C000B4B9B6903F00403FB60FB6840233B6138
:100BAC0002237B610223FB6107F110031946054800
:100BBC0000F040FC00BF2037BD4680BD0004004063
:100BCC00001002400008014080B400AFFEE780B482
:100BDC0000AFFEE780B400AFFEE780B400AFFEE7E5
:100BEC0080B400AFFEE780B400AF00BFBD4680BC50
:100BFC00704780B400AF00BFBD4680BC704780B466
:100C0C0000AF00BFBD4680BC704780B500AF00F0A0
:100C1C00EDFA00BF80BD000080B586B000AF7860F3
:100C2C00144A154BD31A7B617B693B61134B1B68D0
:100C3C00002B02D1114B124A1A60104B1A687B68B8
:100C4C0013443A699A4207D202F0A6F803460C22E2
:100C5C001A604FF0FF3309E0084B1B68FB60074B31
:100C6C001A687B681344054A1360FB6818461837EA
:100C7C00BD4680BD00500020000400003C01002057
:100C8C009002002080B400AF00BFBD4680BC70470E
:100C9C00FFF7F8FF0B480C490C4A002302E0D4582C
:100CAC00C4500433C4188C42F9D3094A094C0023AC
:100CBC0001E013600432A242FBD302F073F8FFF799
:100CCC00EBFC7047000000207C0000204837000837
:100CDC007C0000208C020020FEE7000080B400AFF6
:100CEC00144BDB68134A23F08073D360114BDB6821
:100CFC00104A43F08073D3600F4B1B680E4A23F0ED
:100D0C00010313600C4B1B680B4A43F00103136087
:100D1C00094B00225A6000BF00BF00BF064B5B6846
:100D2C00002B01D0002300E001231846BD4680BCF7
:100D3C00704700BFF0ED00E0001000E080B584B01B
:100D4C0000AF78600D4B5B68FB6001F0CFF8034699
:100D5C000B4AA2FB03239B0C7A6802FB03F37B6018
:100D6C0000BF064B5A68FB68D21A7B689A42F8D3CC
:100D7C0000BF00BF1037BD4680BD00BF001000E0B3
:100D8C0083DE1B4380B582B000AF0346FB80FB883B
:100D9C001846FFF7D3FF00BF0837BD4680BD80B4AF
:100DAC0083B000AF78600B46FB707B685B68DA68D9
:100DBC007B681B7A19460F238B40DB4319467B68F3
:100DCC005B680A40DA607B685B68DA68FB78796894
:100DDC00097A8B4019467B685B680A43DA6000BF6E
:100DEC000C37BD4680BC704780B582B000AF7860D0
:100DFC000B46FB707B6858697B681B8BFA7819462D
:100E0C0000F09CFC00BF0837BD4680BD80B582B0A9
:100E1C0000AF78600B46FB707B68D8687B681B8AD8
:100E2C00FA78194600F08AFC00BF0837BD4680BD31
:100E3C0080B586B000AF786007F1080300221A6015
:100E4C005A609A60DA607B681B8BBB600123FB6085
:100E5C0002237B617B685B6907F108021146184627
:100E6C0000F0E8FA7B681B8ABB607B68DB6807F1E3
:100E7C0008021146184600F0DDFA7B681B7A1A4608
:100E8C000F239340BB607B685B6807F10802114637
:100E9C00184600F0CFFA00BF1837BD4680BD80B5AC
:100EAC0082B000AF78600B46FB701346BB70FB78CA
:100EBC0019467868FFF798FFBB781B09DBB2194617
:100ECC007868FFF76CFF01217868FFF79FFF0A2015
:100EDC00FFF758FF00217868FFF798FF6420FFF7B1
:100EEC0051FFBB7819467868FFF759FF01217868E4
:100EFC00FFF78CFF0A20FFF745FF00217868FFF70A
:100F0C0085FF6420FFF73EFF00BF0837BD4680BD5C
:100F1C0080B584B000AF78600B46FB701346BB7095
:100F2C00FFF7DCFE7868FFF783FF7B6800229A7678
:100F3C007B684022DA767B68BA781A77BB784033C4
:100F4C00DAB27B685A7700217868FFF74DFF0021F1
:100F5C007868FFF75BFF4CF25030FFF713FF00236C
:100F6C00FB7318E003217868FFF719FF01217868FB
:100F7C00FFF74CFF0A20FFF705FF00217868FFF709
:100F8C0045FF6420FFF7FEFE41F29410FFF7FAFED6
:100F9C00FB7B0133FB73FB7B012BE3D903217868CB
:100FAC00FFF7FDFE01217868FFF730FF0A20FFF7FD
:100FBC00E9FE00217868FFF729FF6420FFF7E2FEC5
:100FCC009620FFF7DFFE02217868FFF7E8FE01218B
:100FDC007868FFF71BFF0A20FFF7D4FE0021786822
:100FEC00FFF714FF6420FFF7CDFE2822002178685C
:100FFC00FFF755FF002300220121786800F06DF8FF
:10100C00786800F059F800BF1037BD4680BD80B538
:10101C0082B000AF78600B46FB701346BB70FB7858
:10102C007A6813449A7EBB781344DBB25BB263F0EC
:10103C007F035BB2DBB21A4600217868FFF72FFF03
:10104C0000BF0837BD4680BD80B586B000AFF860E4
:10105C00B9601346FB710023FB750BE0BB685A1C8F
:10106C00BA601B781A460121F868FFF718FFFB7D60
:10107C000133FB75FA7DFB799A42EFD300BF00BFB9
:10108C001837BD4680BD80B584B000AFF8607B607A
:10109C000B46FB721346BB72BA7AFB7A1946F86898
:1010AC00FFF7B5FF3B7E1A467968F868FFF7CCFF6F
:1010BC0000BF1037BD4680BD80B582B000AF7860F0
:1010CC00012200217868FFF7EAFE4FF4FA60FFF77F
:1010DC0059FE00BF0837BD4680BD80B582B000AF59
:1010EC007860084611461A460346FB700B46BB70E7
:1010FC0013467B707B6800229A77FB78002B06D016
:10110C007B689B7F43F00403DAB27B689A77BB78E9
:10111C00002B06D07B689B7F43F00203DAB27B681E
:10112C009A777B78002B06D07B689B7F43F001037A
:10113C00DAB27B689A777B689B7F43F00403DAB260
:10114C007B689A777B689B7F43F00803DBB21A4677
:10115C0000217868FFF7A3FE00BF0837BD4680BDAD
:10116C0080B500AF084B1B68074A43F010031360AF
:10117C00032000F02BF90F2000F008F8FFF764FCB7
:10118C000023184680BD00BF0020024080B582B00D
:10119C0000AF7860124B1A68124B1B7819464FF44B
:1011AC007A73B3FBF1F3B2FBF3F3184600F035F9A5
:1011BC000346002B01D001230EE07B680F2B0AD8CD
:1011CC00002279684FF0FF3000F00BF9064A7B687B
:1011DC001360002300E0012318460837BD4680BD8C
:1011EC0020000020280000202400002080B400AF44
:1011FC00054B1B781A46054B1B681344034A1360B6
:10120C0000BFBD4680BC7047280000204001002074
:10121C0080B400AF024B1B681846BD4680BC7047BB
:10122C004001002080B584B000AF7860FFF7F0FF7C
:10123C00B8607B68FB60FB68B3F1FF3F05D00A4BDD
:10124C001B781A46FB681344FB6000BFFFF7E0FFF6
:10125C000246BB68D31AFA689A42F7D800BF00BF9F
:10126C001037BD4680BD00BF2800002080B485B07B
:10127C0000AF78607B6803F00703FB600C4BDB6806
:10128C00BB60BA684FF6FF031340BB60FB681A02E1
:10129C00BB68134343F0BF6343F40033BB60044AA1
:1012AC00BB68D36000BF1437BD4680BC704700BF1D
:1012BC0000ED00E080B400AF044BDB681B0A03F0C8
:1012CC0007031846BD4680BC704700BF00ED00E028
:1012DC0080B483B000AF03463960FB7197F90730D7
:1012EC00002B0ADB3B68DAB20C4997F90730120184
:1012FC00D2B20B4483F800230AE03B68DAB2084907
:10130C00FB7903F00F03043B1201D2B20B441A76A3
:10131C0000BF0C37BD4680BC704700BF00E100E049
:10132C0000ED00E080B489B000AFF860B9607A607D
:10133C00FB6803F00703FB61FB69C3F10703042B94
:10134C0028BF0423BB61FB690433062B02D9FB695C
:10135C00033B00E000237B614FF0FF32BB6902FAD4
:10136C0003F3DA43BB681A407B699A404FF0FF31B4
:10137C007B6901FA03F3D9437B680B40134318468E
:10138C002437BD4680BC704780B582B000AF786012
:10139C007B68013BB3F1807F01D301230FE00A4A44
:1013AC007B68013B53600F214FF0FF30FFF790FF3C
:1013BC00054B00229A60044B07221A600023184642
:1013CC000837BD4680BD00BF10E000E080B582B09C
:1013DC0000AF78607868FFF749FF00BF0837BD465B
:1013EC0080BD80B586B000AF0346B9607A60FB73F0
:1013FC0000237B61FFF75EFF78617A68B9687869D2
:10140C00FFF790FF024697F90F3011461846FFF789
:10141C005FFF00BF1837BD4680BD80B582B000AFFE
:10142C0078607868FFF7B0FF034618460837BD466A
:10143C0080BD000080B48BB000AF786039600023B1
:10144C007B6200233B6269E101227B6A02FA03F3AF
:10145C00FB613B681B68FA691340BB61BA69FB69A5
:10146C009A4240F058813B685B689A4A93425ED03E
:10147C00984A934275D8984A934258D0964A9342C8
:10148C006FD8964A934252D0944A934269D8944A60
:10149C0093424CD0924A934263D8924A934246D09C
:1014AC00904A93425DD8122B2AD8122B59D801A2FC
:1014BC0052F823F03B1500081515000827150008F5
:1014CC00691500086F1500086F1500086F150008E6
:1014DC006F1500086F1500086F1500086F150008D0
:1014EC006F1500086F1500086F1500086F150008C0
:1014FC006F1500086F1500081D1500083115000840
:10150C00794A934213D02CE03B68DB683B6229E0BC
:10151C003B68DB6804333B6224E03B68DB680833E0
:10152C003B621FE03B68DB680C333B621AE03B68B4
:10153C009B68002B02D104233B6213E03B689B6841
:10154C00012B05D108233B627B68FA691A6109E01B
:10155C0008233B627B68FA695A6103E000233B6213
:10156C0000E000BFBB69FF2B01D87B6801E07B6802
:10157C0004337B61BB69FF2B02D87B6A9B0002E0C2
:10158C007B6A083B9B003B617B691A680F213B69B6
:10159C0001FA03F3DB431A40396A3B6901FA03F39E
:1015AC001A437B691A603B685B6803F08053002B1D
:1015BC0000F0B1804D4B9B694C4A43F001039361A1
:1015CC004A4B9B6903F00103BB60BB68484A7B6ACA
:1015DC009B08023352F82330FB607B6A03F0030351
:1015EC009B000F2202FA03F3DB43FA681340FB6003
:1015FC007B68404A934213D07B683F4A93420DD09C
:10160C007B683E4A934207D07B683D4A934201D1A6
:10161C00032306E0042304E0022302E0012300E09C
:10162C0000237A6A02F0030292009340FA68134393
:10163C00FB602F497B6A9B080233FA6841F8232030
:10164C003B685B6803F48013002B06D02D4B9A6823
:10165C002C49BB6913438B6006E02A4B9A68BB6923
:10166C00DB43284913408B603B685B6803F4001331
:10167C00002B06D0234BDA682249BB691343CB609D
:10168C0006E0204BDA68BB69DB431E491340CB6094
:10169C003B685B6803F40033002B06D0194B5A6887
:1016AC001849BB6913434B6006E0164B5A68BB697B
:1016BC00DB43144913404B603B685B6803F4803395
:1016CC00002B21D00F4B1A680E49BB6913430B60DA
:1016DC0021E000BF00003210000031100000221089
:1016EC000000211000001210000011100010024028
:1016FC000000014000080140000C014000100140B6
:10170C0000140140000401400B4B1A68BB69DB4319
:10171C00094913400B607B6A01337B623B681A6892
:10172C007B6A22FA03F3002B7FF48EAE00BF00BF5E
:10173C002C37BD4680BC70470004014080B483B098
:10174C0000AF78600B467B8013467B707B78002B58
:10175C0003D07A887B681A6103E07B881A047B6863
:10176C001A6100BF0C37BD4680BC704780B586B08F
:10177C0000AF78607B68002B01D1012372E27B689B
:10178C001B6803F00103002B00F08780924B5B6811
:10179C0003F00C03042B0CD08F4B5B6803F00C0391
:1017AC00082B12D18C4B5B6803F48033B3F5803F6C
:1017BC000BD1894B1B6803F40033002B6CD07B6876
:1017CC005B68002B68D101234CE27B685B68B3F546
:1017DC00803F06D1804B1B687F4A43F480331360F3
:1017EC002EE07B685B68002B0CD17B4B1B687A4A24
:1017FC0023F480331360784B1B68774A23F48023DF
:10180C0013601DE07B685B68B3F5A02F0CD1724BA5
:10181C001B68714A43F4802313606F4B1B686E4A3C
:10182C0043F4803313600BE06B4B1B686A4A23F460
:10183C0080331360684B1B68674A23F48023136062
:10184C007B685B68002B13D0FFF7E2FC386108E083
:10185C00FFF7DEFC02463B69D31A642B01D9032344
:10186C0000E25D4B1B6803F40033002BF0D014E056
:10187C00FFF7CEFC386108E0FFF7CAFC02463B6973
:10188C00D31A642B01D90323ECE1534B1B6803F4EB
:10189C000033002BF0D100E000BF7B681B6803F025
:1018AC000203002B63D04C4B5B6803F00C03002B42
:1018BC000BD0494B5B6803F00C03082B1CD1464B37
:1018CC005B6803F48033002B16D1434B1B6803F089
:1018DC000203002B05D07B681B69012B01D001236F
:1018EC00C0E13D4B1B6823F0F8027B685B69DB00B1
:1018FC00394913430B603AE07B681B69002B20D0FD
:10190C00364B01221A60FFF783FC386108E0FFF7C1
:10191C007FFC02463B69D31A022B01D90323A1E1B8
:10192C002D4B1B6803F00203002BF0D02A4B1B68D5
:10193C0023F0F8027B685B69DB00274913430B60DB
:10194C0015E0264B00221A60FFF762FC386108E0B4
:10195C00FFF75EFC02463B69D31A022B01D9032325
:10196C0080E11D4B1B6803F00203002BF0D17B6858
:10197C001B6803F00803002B3AD07B689B69002B93
:10198C0019D0174B01221A60FFF742FC386108E0AE
:10199C00FFF73EFC02463B69D31A022B01D9032305
:1019AC0060E10D4B5B6A03F00203002BF0D00120C9
:1019BC0000F0A6FA1CE00A4B00221A60FFF728FC84
:1019CC0038610FE0FFF724FC02463B69D31A022B67
:1019DC0008D9032346E100BF001002400000424238
:1019EC0080044242924B5B6A03F00203002BE9D164
:1019FC007B681B6803F00403002B00F0A680002317
:101A0C00FB758B4BDB6903F08053002B0DD1884B9E
:101A1C00DB69874A43F08053D361854BDB6903F064
:101A2C008053BB60BB680123FB75824B1B6803F4BE
:101A3C008073002B18D17F4B1B687E4A43F4807354
:101A4C001360FFF7E5FB386108E0FFF7E1FB0246A6
:101A5C003B69D31A642B01D9032303E1754B1B6833
:101A6C0003F48073002BF0D07B68DB68012B06D16C
:101A7C006F4B1B6A6E4A43F0010313622DE07B68C7
:101A8C00DB68002B0CD16A4B1B6A694A23F00103FB
:101A9C001362674B1B6A664A23F0040313621CE053
:101AAC007B68DB68052B0CD1614B1B6A604A43F0E9
:101ABC00040313625E4B1B6A5D4A43F0010313621D
:101ACC000BE05B4B1B6A5A4A23F001031362584B21
:101ADC001B6A574A23F0040313627B68DB68002BF4
:101AEC0015D0FFF795FB38610AE0FFF791FB024632
:101AFC003B69D31A41F28832934201D90323B1E0F6
:101B0C004B4B1B6A03F00203002BEED014E0FFF7E3
:101B1C007FFB38610AE0FFF77BFB02463B69D31A77
:101B2C0041F28832934201D903239BE0404B1B6A5C
:101B3C0003F00203002BEED1FB7D012B05D13C4BB6
:101B4C00DB693B4A23F08053D3617B68DB69002B54
:101B5C0000F08780364B5B6803F00C03082B61D0D8
:101B6C007B68DB69022B46D1334B00221A60FFF7EE
:101B7C004FFB386108E0FFF74BFB02463B69D31A79
:101B8C00022B01D903236DE0294B1B6803F0007372
:101B9C00002BF0D17B681B6AB3F5803F08D1244B36
:101BAC005B6823F400327B689B68214913434B60CC
:101BBC001F4B5B6823F474127B68196A7B685B6A41
:101BCC000B431B4913434B601B4B01221A60FFF75D
:101BDC001FFB386108E0FFF71BFB02463B69D31A79
:101BEC00022B01D903233DE0114B1B6803F000735A
:101BFC00002BF0D035E0104B00221A60FFF708FBE9
:101C0C00386108E0FFF704FB02463B69D31A022B4C
:101C1C0001D9032326E0064B1B6803F00073002B4D
:101C2C00F0D11EE07B68DB69012B07D1012319E0A1
:101C3C000010024000700040600042420B4B5B6899
:101C4C00FB60FB6803F480327B681B6A9A4206D106
:101C5C00FB6803F470127B685B6A9A4201D0012323
:101C6C0000E0002318461837BD4680BD0010024026
:101C7C0080B584B000AF786039607B68002B01D1EF
:101C8C000123D0E06A4B1B6803F007033A689A42C1
:101C9C0010D9674B1B6823F0070265493B68134357
:101CAC000B60634B1B6803F007033A689A4201D040
:101CBC000123B8E07B681B6803F00203002B20D0E3
:101CCC007B681B6803F00403002B05D0594B5B6841
:101CDC00584A43F4E06353607B681B6803F00803C5
:101CEC00002B05D0534B5B68524A43F4605353604E
:101CFC00504B5B6823F0F0027B689B684D491343A3
:101D0C004B607B681B6803F00103002B40D07B68A1
:101D1C005B68012B07D1474B1B6803F40033002B86
:101D2C0015D101237FE07B685B68022B07D1414B07
:101D3C001B6803F00073002B09D1012373E03D4BAA
:101D4C001B6803F00203002B01D101236BE0394B1C
:101D5C005B6823F003027B685B68364913434B6076
:101D6C00FFF756FAF8600AE0FFF752FA0246FB68F2
:101D7C00D31A41F28832934201D9032353E02D4BFD
:101D8C005B6803F00C027B685B689B009A42EBD1AA
:101D9C00274B1B6803F007033A689A4210D2244B76
:101DAC001B6823F0070222493B6813430B60204B4E
:101DBC001B6803F007033A689A4201D0012332E012
:101DCC007B681B6803F00403002B08D0194B5B687D
:101DDC0023F4E0627B68DB68164913434B607B6835
:101DEC001B6803F00803002B09D0124B5B6823F42B
:101DFC0060527B681B69DB000E4913434B6000F09B
:101E0C0021F802460B4B5B681B0903F00F030A49D0
:101E1C00CB5C22FA03F3094A1360094B1B68184682
:101E2C00FFF7B4F9002318461037BD4680BD00BF3C
:101E3C000020024000100240E8360008200000207C
:101E4C002400002080B487B000AF0023FB60002387
:101E5C00BB6000237B6100237B6000233B611E4B36
:101E6C005B68FB60FB6803F00C03042B02D0082BAF
:101E7C0003D027E0194B3B6127E0FB689B0C03F078
:101E8C000F03174AD35C7B60FB6803F48033002B91
:101E9C0010D0114B5B685B0C03F00103114AD35C4F
:101EAC00BB607B680D4A03FB02F2BB68B2FBF3F329
:101EBC007B6104E07B680C4A02FB03F37B617B696A
:101ECC003B6102E0054B3B6100BF3B6918461C3788
:101EDC00BD4680BC704700BF0010024000127A0063
:101EEC00F83600080837000800093D0080B400AF40
:101EFC00024B1B681846BD4680BC70472000002072
:101F0C0080B485B000AF78600A4B1B680A4AA2FB0C
:101F1C0003235B0A7A6802FB03F3FB6000BFFB68D8
:101F2C005A1EFA60002BF9D100BF00BF1437BD4612
:101F3C0080BC704720000020D34D621080B582B069
:101F4C0000AF78607B68002B01D1012341E07B68F6
:101F5C0093F83D30DBB2002B06D17B68002283F86E
:101F6C003C207868FEF7A2FD7B68022283F83D20B6
:101F7C007B681A687B6804331946104600F0E2FB54
:101F8C007B68012283F846207B68012283F83E207F
:101F9C007B68012283F83F207B68012283F8402074
:101FAC007B68012283F841207B68012283F8422060
:101FBC007B68012283F843207B68012283F844204C
:101FCC007B68012283F845207B68012283F83D2041
:101FDC00002318460837BD4680BD80B582B000AFDF
:101FEC0078607B68002B01D1012341E07B6893F87A
:101FFC003D30DBB2002B06D17B68002283F83C20FD
:10200C00786800F039F87B68022283F83D207B6801
:10201C001A687B6804331946104600F093FB7B6802
:10202C00012283F846207B68012283F83E207B68DE
:10203C00012283F83F207B68012283F840207B68D3
:10204C00012283F841207B68012283F842207B68BF
:10205C00012283F843207B68012283F844207B68AB
:10206C00012283F845207B68012283F83D20002360
:10207C0018460837BD4680BD80B483B000AF786089
:10208C0000BF0C37BD4680BC7047000080B584B0E3
:10209C0000AF786039603B68002B09D17B6893F8FE
:1020AC003E30DBB2012B14BF01230023DBB222E054
:1020BC003B68042B09D17B6893F83F30DBB2012BD2
:1020CC0014BF01230023DBB215E03B68082B09D1B8
:1020DC007B6893F84030DBB2012B14BF0123002343
:1020EC00DBB208E07B6893F84130DBB2012B14BF04
:1020FC0001230023DBB2002B01D001235EE03B68FF
:10210C00002B04D17B68022283F83E2013E03B684D
:10211C00042B04D17B68022283F83F200BE03B6840
:10212C00082B04D17B68022283F8402003E07B68F3
:10213C00022283F841207B681B680122396818460B
:10214C0000F080FD7B681B681E4A934207D17B68B8
:10215C001B685A6C7B681B6842F400425A647B68AB
:10216C001B68184A93420ED07B681B68B3F1804FF2
:10217C0009D07B681B68144A934204D07B681B68A7
:10218C00124A934211D17B681B689B6803F00703CA
:10219C00FB60FB68062B10D07B681B681A687B6899
:1021AC001B6842F001021A6007E07B681B681A6822
:1021BC007B681B6842F001021A6000231846103736
:1021CC00BD4680BD002C01400004004000080040CA
:1021DC0080B586B000AF786039607B68002B01D188
:1021EC00012393E07B6893F83D30DBB2002B06D1E2
:1021FC007B68002283F83C207868FEF775FC7B68CE
:10220C00022283F83D207B681B689B687A68126801
:10221C0023F4804323F0070393607B681A687B6880
:10222C0004331946104600F08DFA7B681B689B68D6
:10223C007B617B681B689B693B617B681B681B6AC5
:10224C00FB603B681B687A6913437B613B6923F431
:10225C00407323F003033B613B689A683B689B69BE
:10226C001B0213433A6913433B613B6923F44063FC
:10227C0023F00C033B613B6923F4704323F0F00320
:10228C003B613B68DA683B68DB691B0213433A69C4
:10229C0013433B613B681B691A013B681B6A1B03B8
:1022AC0013433A6913433B61FB6823F02203FB6041
:1022BC003B685A683B685B691B011343FA6813431C
:1022CC00FB607B681B687A699A607B681B683A695B
:1022DC009A617B681B68FA681A627B68012283F832
:1022EC0046207B68012283F83E207B68012283F81C
:1022FC003F207B68012283F842207B68012283F80F
:10230C0043207B68012283F83D20002318461837B0
:10231C00BD4680BD80B584B000AF786039607B6805
:10232C0093F83E30FB737B6893F83F30BB737B684C
:10233C0093F842307B737B6893F843303B733B6874
:10234C00002B10D1FB7B012B02D17B7B012B01D00D
:10235C00012369E07B68022283F83E207B6802221D
:10236C0083F8422031E03B68042B10D1BB7B012B5E
:10237C0002D13B7B012B01D0012355E07B6802226B
:10238C0083F83F207B68022283F843201DE0FB7B0F
:10239C00012B08D1BB7B012B05D17B7B012B02D1FF
:1023AC003B7B012B01D001233EE07B68022283F8AA
:1023BC003E207B68022283F83F207B68022283F850
:1023CC0042207B68022283F843203B68002B03D019
:1023DC003B68042B08D00FE07B681B6801220021AE
:1023EC00184600F02FFC16E07B681B6801220421C4
:1023FC00184600F027FC0EE07B681B6801220021C8
:10240C00184600F01FFC7B681B680122042118464B
:10241C0000F018FC00BF7B681B681A687B681B689F
:10242C0042F001021A60002318461037BD4680BDE9
:10243C0080B586B000AFF860B9607A600023FB7598
:10244C00FB6893F83C30012B01D10223AEE0FB6812
:10245C00012283F83C207B680C2B00F29F8001A2A8
:10246C0052F823F0A5240008A9250008A925000886
:10247C00A9250008E5240008A9250008A9250008BD
:10248C00A925000827250008A9250008A92500086A
:10249C00A925000867250008FB681B68B968184661
:1024AC0000F0B2F9FB681B689A69FB681B6842F084
:1024BC0008029A61FB681B689A69FB681B6822F02A
:1024CC0004029A61FB681B689969BB681A69FB680E
:1024DC001B680A439A6164E0FB681B68B96818467C
:1024EC0000F0F8F9FB681B689A69FB681B6842F4FA
:1024FC0000629A61FB681B689A69FB681B6822F48E
:10250C0080629A61FB681B689969BB681B691A0237
:10251C00FB681B680A439A6143E0FB681B68B96857
:10252C00184600F041FAFB681B68DA69FB681B6807
:10253C0042F00802DA61FB681B68DA69FB681B6809
:10254C0022F00402DA61FB681B68D969BB681A695E
:10255C00FB681B680A43DA6123E0FB681B68B968F7
:10256C00184600F08BFAFB681B68DA69FB681B687D
:10257C0042F40062DA61FB681B68DA69FB681B686D
:10258C0022F48062DA61FB681B68D969BB681B693D
:10259C001A02FB681B680A43DA6102E00123FB752F
:1025AC0000BFFB68002283F83C20FB7D18461837DF
:1025BC00BD4680BD80B584B000AF78603960002323
:1025CC00FB737B6893F83C30012B01D10223B4E000
:1025DC007B68012283F83C207B68022283F83D2033
:1025EC007B681B689B68BB60BB6823F07703BB6090
:1025FC00BB6823F47F43BB607B681B68BA689A6036
:10260C003B681B68B3F5005F3ED0B3F5005F00F28A
:10261C008780B3F5805F00F08680B3F5805F7FD84C
:10262C00702B1AD0702B7BD8602B50D0602B77D8A6
:10263C00502B3CD0502B73D8402B58D0402B6FD8FC
:10264C00302B64D0302B6BD8202B60D0202B67D84C
:10265C00002B5CD0102B5AD062E07B6818683B686A
:10266C0099683B685A683B68DB6800F0CCFA7B6879
:10267C001B689B68BB60BB6843F07703BB607B68DF
:10268C001B68BA689A604FE07B6818683B68996869
:10269C003B685A683B68DB6800F0B5FA7B681B68DE
:1026AC009A687B681B6842F480429A603CE07B68C5
:1026BC0018683B6859683B68DB681A4600F02CFACE
:1026CC007B681B685021184600F083FA2CE07B686D
:1026DC0018683B6859683B68DB681A4600F04AFA90
:1026EC007B681B686021184600F073FA1CE07B685D
:1026FC0018683B6859683B68DB681A4600F00CFAAE
:10270C007B681B684021184600F063FA0CE07B687C
:10271C001A683B681B681946104600F05AFA03E029
:10272C000123FB7300E000BF7B68012283F83D208E
:10273C007B68002283F83C20FB7B18461037BD4693
:10274C0080BD000080B485B000AF786039607B68D4
:10275C001B68FB607B68294A93420BD07B68B3F102
:10276C00804F07D07B68264A934203D07B68254A6A
:10277C00934208D1FB6823F07003FB603B685B68F5
:10278C00FA681343FB607B681C4A93420BD07B684E
:10279C00B3F1804F07D07B68194A934203D07B6812
:1027AC00184A934208D1FB6823F44073FB603B68E2
:1027BC00DB68FA681343FB60FB6823F080023B681C
:1027CC005B691343FB607B68FA681A603B689A6824
:1027DC007B68DA623B681A687B689A627B68074A96
:1027EC00934203D13B681A697B681A637B680122A8
:1027FC005A6100BF1437BD4680BC7047002C0140A5
:10280C00000400400008004080B487B000AF78603E
:10281C0039607B681B6A7B617B681B6A23F0010251
:10282C007B681A627B685B683B617B689B69FB60B9
:10283C00FB6823F07003FB60FB6823F00303FB6071
:10284C003B681B68FA681343FB607B6923F0020347
:10285C007B613B689B687A6913437B617B681C4A8C
:10286C0093420CD17B6923F008037B613B68DB68E6
:10287C007A6913437B617B6923F004037B617B687A
:10288C00134A934211D13B6923F480733B613B693A
:10289C0023F400733B613B685B693A6913433B610A
:1028AC003B689B693A6913433B617B683A695A60A0
:1028BC007B68FA689A613B685A687B685A637B68E4
:1028CC007A691A6200BF1C37BD4680BC704700BFD6
:1028DC00002C014080B487B000AF786039607B6811
:1028EC001B6A7B617B681B6A23F010027B681A628F
:1028FC007B685B683B617B689B69FB60FB6823F4CE
:10290C00E043FB60FB6823F44073FB603B681B688F
:10291C001B02FA681343FB607B6923F020037B6185
:10292C003B689B681B017A6913437B617B681D4A7A
:10293C0093420DD17B6923F080037B613B68DB689C
:10294C001B017A6913437B617B6923F040037B6134
:10295C007B68144A934213D13B6923F480633B6137
:10296C003B6923F400633B613B685B699B003A69FC
:10297C0013433B613B689B699B003A6913433B6182
:10298C007B683A695A607B68FA689A613B685A6856
:10299C007B689A637B687A691A6200BF1C37BD46F4
:1029AC0080BC7047002C014080B487B000AF7860C9
:1029BC0039607B681B6A7B617B681B6A23F48072BD
:1029CC007B681A627B685B683B617B68DB69FB60D8
:1029DC00FB6823F07003FB60FB6823F00303FB60D0
:1029EC003B681B68FA681343FB607B6923F4007334
:1029FC007B613B689B681B027A6913437B617B6834
:102A0C001D4A93420DD17B6923F400637B613B68C3
:102A1C00DB681B027A6913437B617B6923F4806357
:102A2C007B617B68144A934213D13B6923F4805336
:102A3C003B613B6923F400533B613B685B691B01C1
:102A4C003A6913433B613B689B691B013A69134329
:102A5C003B617B683A695A607B68FA68DA613B686B
:102A6C005A687B68DA637B687A691A6200BF1C3724
:102A7C00BD4680BC704700BF002C014080B487B0BD
:102A8C0000AF786039607B681B6A3B617B681B6AAE
:102A9C0023F480527B681A627B685B687B617B687D
:102AAC00DB69FB60FB6823F4E043FB60FB6823F409
:102ABC004073FB603B681B681B02FA681343FB60A6
:102ACC003B6923F400533B613B689B681B033A69E9
:102ADC0013433B617B680F4A934209D17B6923F412
:102AEC0080437B613B685B699B017A6913437B6123
:102AFC007B687A695A607B68FA68DA613B685A6865
:102B0C007B681A647B683A691A6200BF1C37BD4641
:102B1C0080BC7047002C014080B487B000AFF860D7
:102B2C00B9607A60FB681B6A7B61FB681B6A23F0E7
:102B3C000102FB681A62FB689B693B613B6923F0ED
:102B4C00F0033B617B681B013A6913433B617B6972
:102B5C0023F00A037B617A69BB6813437B61FB68D2
:102B6C003A699A61FB687A691A6200BF1C37BD46E4
:102B7C0080BC704780B487B000AFF860B9607A60F1
:102B8C00FB681B6A7B61FB681B6A23F01002FB6805
:102B9C001A62FB689B693B613B6923F470433B61A0
:102BAC007B681B033A6913433B617B6923F0A003E9
:102BBC007B61BB681B017A6913437B61FB683A69D3
:102BCC009A61FB687A691A6200BF1C37BD4680BCEB
:102BDC00704780B485B000AF786039607B689B68C3
:102BEC00FB60FB6823F07003FB603A68FB681343DF
:102BFC0043F00703FB607B68FA689A6000BF1437E8
:102C0C00BD4680BC704780B487B000AFF860B96037
:102C1C007A603B60FB689B687B617B6923F47F4334
:102C2C007B613B681A027B681A43BB6813437A6961
:102C3C0013437B61FB687A699A6000BF1C37BD4601
:102C4C0080BC704780B487B000AFF860B9607A6020
:102C5C00BB6803F01F03012202FA03F37B61FB68DC
:102C6C001A6A7B69DB431A40FB681A62FB681A6AB2
:102C7C00BB6803F01F03796801FA03F31A43FB687E
:102C8C001A6200BF1C37BD4680BC704780B485B04B
:102C9C0000AF786039607B6893F83C30012B01D130
:102CAC00022346E07B68012283F83C207B680222E9
:102CBC0083F83D207B681B685B68FB607B681B6846
:102CCC009B68BB60FB6823F07003FB603B681B6870
:102CDC00FA681343FB607B681B68FA685A607B6870
:102CEC001B68164A93420ED07B681B68B3F1804F69
:102CFC0009D07B681B68124A934204D07B681B681E
:102D0C00104A93420CD1BB6823F08003BB603B6834
:102D1C005B68BA681343BB607B681B68BA689A60CF
:102D2C007B68012283F83D207B68002283F83C20DD
:102D3C00002318461437BD4680BC7047002C014058
:102D4C0000040040000800400EB46FF0004100B5D4
:102D5C009CB01DAB0290069007910491084809495C
:102D6C0053F8042B0591006802A9019300F08EF929
:102D7C000022029B1A701CB05DF804EB03B0704784
:102D8C00780000200802FFFF03460244934200D162
:102D9C00704703F8011BF9E7014B1868704700BF37
:102DAC007800002070B500260C4D0D4C641BA4104F
:102DBC00A64209D100F07AFC00260A4D0A4C641B8D
:102DCC00A410A64205D170BD55F8043B98470136B6
:102DDC00EEE755F8043B98470136F2E74037000818
:102DEC0040370008403700084437000870477047E8
:102DFC0038B50546002940D051F8043C0C1F002B77
:102E0C00B8BFE41800F0DCF81C4A136833B96360EF
:102E1C0014602846BDE8384000F0D8B8A34208D961
:102E2C00206821188B4201BF19685B680918216062
:102E3C00EDE71A465B680BB1A342FAD9116850183A
:102E4C00A0420BD120680144501883421160E0D19C
:102E5C0018685B68084410605360DAE702D90C23E9
:102E6C002B60D6E7206821188B4201BF19685B687C
:102E7C000918216063605460CBE738BD84020020E0
:102E8C0070B50E4E0C463168054611B900F0AAFB20
:102E9C0030602146284600F0A5FB431C0AD0C41C18
:102EAC0024F00304A04207D0211A284600F09AFB14
:102EBC00013001D14FF0FF34204670BD8802002054
:102ECC002DE9F843CD1C25F0030508350C2D38BF32
:102EDC000C25002D074601DBA94205D90C23002641
:102EEC003B603046BDE8F883DFF8D08000F068F82E
:102EFC00D8F800301C465CBB29463846FFF7C0FFAB
:102F0C00431C044655D1D8F800402646002E45D126
:102F1C00002C48D023683146384604EB030900F0F6
:102F2C0061FB81453FD1216838466D1A2946FFF770
:102F3C00A7FF013037D023682B442360D8F800302A
:102F4C00002B38D05A68A2422BD100225A600FE0D5
:102F5C002268521B1FD40B2A17D96119A342256072
:102F6C0018BF5960636808BFC8F8001062514B6005
:102F7C00384604F10B0600F029F826F00706231D4D
:102F8C00F21AAED09B1BA350ABE7A3426268DDD113
:102F9C00C8F80020ECE723466468ACE73446766852
:102FAC00B4E71346CCE70C2338463B6000F00EF830
:102FBC0097E72560DCE75B60FFDE00BF8402002042
:102FCC000148FFF713BF00BF800200200148FFF744
:102FDC000EBF00BF800200202DE9F0471F468E680F
:102FEC008246BE420C4690460B682CD88A8912F455
:102FFC00906F26D06569096905EB4505A3EB0109BE
:10300C0005EBD5757B1C4B446D109D4238BF1D469E
:10301C00530527D52946FFF753FF064660B34A46AA
:10302C00216900F0FDFAA38923F4906343F0800337
:10303C00A38126614E4426603E466561A5EB0905D9
:10304C00A560BE4200D93E4632464146206800F09B
:10305C00AFFA0020A3689B1BA36023683344236052
:10306C00BDE8F0872A4600F0E9FA06460028E0D1D0
:10307C0050462169FFF7BCFE0C23CAF80030A38927
:10308C004FF0FF3043F04003A381E9E72DE9F04F07
:10309C0098468B8907461B060D4614469DB00ED5E7
:1030AC000B6963B94021FFF70BFF2860286120B939
:1030BC000C233B604FF0FF30D0E040236B610023CA
:1030CC00099320238DF8293030234FF00109CDF8D6
:1030DC000C80DFF8A0818DF82A3023469A4613F82D
:1030EC00012B0AB1252AF9D1BAEB040B0BD05B46A4
:1030FC00224629463846FFF76FFF013000F0A980C1
:10310C00099A5A4409929AF80030002B00F0A180D9
:10311C0000234FF0FF32CDE905230AF1010A049395
:10312C0007938DF853301A935446052214F8011B5B
:10313C00504800F067FA049AD8B9D00644BF20234F
:10314C008DF85330110744BF2B238DF853309AF868
:10315C0000302A2B15D0544600204FF00A0C079A49
:10316C00214611F8013B303B092B4DD9B0B10792E8
:10317C0014E0A0EB080309FA03F31343A2460493EB
:10318C00D2E7039B191D1B680391002BBBBF5B424D
:10319C0042F0020207930793B8BF049223782E2BB8
:1031AC000CD163782A2B34D1039B02341A1D1B6873
:1031BC000392002BB8BF4FF0FF330593DFF8B8A094
:1031CC0003225046217800F01DFA38B14022049BAE
:1031DC00A0EB0A00824013430134049314F8011B42
:1031EC00062226488DF8281000F00CFA002838D05A
:1031FC00234B1BBB039B073323F0070308330393B9
:10320C00099B3344099368E70C4601200CFB0232FE
:10321C00A6E700234FF00A0C19460134059320460B
:10322C0010F8012B303A092A03D9002BC6D005918E
:10323C00C4E7044601230CFB0121F0E703AB009328
:10324C002A4638460F4B04A9AFF30080421C0646B1
:10325C00D6D1AB895B063FF52DAF09981DB0BDE803
:10326C00F08F03AB00932A463846064B04A900F0B6
:10327C007DF8EBE70A370008103700081437000810
:10328C0000000000E52F00082DE9F047164699468E
:10329C008A680B6907469342B8BF1346336091F8AE
:1032AC0043200C46DDF820800AB1013333602368DB
:1032BC00990642BF336802333360256815F0060562
:1032CC0006D104F1190AE36832689B1AAB422BDC75
:1032DC0094F84320131E226818BF0123920630D4A1
:1032EC004946384604F14302C047013023D02368D5
:1032FC00226903F00603042B14BF002533684FF03A
:10330C00000608BFE56804F11A0408BFED1A54F86A
:10331C00123C08BF25EAE5759342C4BF9B1AED1811
:10332C00B5421AD1002008E00123524649463846DE
:10333C00C047013003D14FF0FF30BDE8F0870135B5
:10334C00C1E73020E11881F843005A1C94F845106D
:10335C002244023382F84310C2E701232246494635
:10336C003846C0470130E6D00136D9E72DE9FF4792
:10337C000F7E9146782F80460C469A460C9D01F1A3
:10338C00430207D8622F0AD8002F00F0D580582F9F
:10339C0000F0C18004F1420584F842703AE0A7F1D4
:1033AC006303152BF6D801A151F823F01134000852
:1033BC0025340008A1330008A1330008A13300080C
:1033CC00A133000825340008A1330008A1330008FC
:1033DC00A1330008A13300082B3500085134000834
:1033EC00E5340008A1330008A13300084D3500086E
:1033FC00A133000851340008A1330008A1330008A0
:10340C00ED3400082B681A1D1B682A6004F1420574
:10341C0084F842300123A0E020682B68070603F1F2
:10342C000401296001D51E6803E04606FBD5B3F9FB
:10343C000060002E03DA2D23764284F843300A23F1
:10344C00594812E02B682068191D2960050601D522
:10345C001E6802E04106FBD51E886F2F0CBF0823A7
:10346C000A235148002184F843106568002DA8BF39
:10347C002168A560A4BF21F0040121600EB9002DC4
:10348C004BD01546B6FBF3F103FB1167C75D05F88E
:10349C00017D3746BB420E46F4D9082B0BD123686D
:1034AC00DE0708D5236961689942DEBF302305F831
:1034BC00013C05F1FF35521B22614B46214640462B
:1034CC00CDF800A003AAFFF7DFFE01304AD14FF080
:1034DC00FF3004B0BDE8F087236843F0200323607D
:1034EC007827324884F84570236829681F0651F8FC
:1034FC00046B02D45F0648BFB6B2DF0748BF43F087
:10350C002003296048BF23601EB9236823F02003E1
:10351C0023601023A6E72448E4E71546BDE72B6893
:10352C002668181D6169286035061B6801D519606D
:10353C0002E07006FBD51980002315462361BCE719
:10354C002B6800211A1D2A601D686268284600F04D
:10355C0059F808B1401B606063682361002384F84C
:10356C004330AAE72A46494640462369D0470130F2
:10357C00ADD023689B0713D4E068039B9842B8BF77
:10358C001846A6E70123324649464046D04701304B
:10359C009DD00135E36803995B1AAB42F2DCEBE793
:1035AC00002504F11906F5E71B3700082C37000835
:1035BC00884210B501EB020402D98442234607D895
:1035CC00431EA14208D011F8012B03F8012FF8E794
:1035DC00014602448A4200D110BD13F8014D02F895
:1035EC00014DF7E738B50023054D044608462B601E
:1035FC00FDF712FB431C02D12B6803B1236038BDCD
:10360C007C020020034610B5C9B20244934218460E
:10361C0001D1002003E0047801338C42F6D110BDB7
:10362C000A44914200F1FF3300D1704710B511F8F4
:10363C00014B914203F8014FF9D110BD2DE9F04136
:10364C00804614460E4621B91146BDE8F041FFF7FD
:10365C0037BC2AB9FFF7CCFB25462846BDE8F081DC
:10366C0000F01BF88442074602D8B4EB500F12D876
:10367C0021464046FFF724FC05460028EDD0BC420D
:10368C002246314628BF3A46FFF7CAFF314640462C
:10369C00FFF7AEFBE1E73546DFE751F8043C181FB6
:1036AC00002BBCBF0B58C01870470000F8B500BF0A
:1036BC00F8BC08BC9E467047F8B500BFF8BC08BC07
:0436CC009E4670475F
:1036D000596F757374690000596F752772652061A1
:1036E000743A202564000000000000000000000083
:1036F0000102030406070809020304050607080976
:103700000A0B0C0D0E0F10100102232D302B200080
:10371000686C4C006566674546470030313233348B
:10372000353637383941424344454600303132332B
:1037300034353637383961626364656600000000ED
:04374000310100084B
:043744000D0100086B
:1037480000000000000801400000000000080140DF
:1037580020000000000801401000000000000000E8
:103768000024F40010000000010000000000000028
:1037780044010020AC0100201402002000000000D9
:103788000000000000000000000000000000000031
:103798000000000000000000000000000000000021
:1037A8000000000000000000000000000000000011
:0C37B80000000000000000002C000020B9
:0400000508000C9D46
:00000001FF
